:020000040000FA
:10000000DAEF1FF01200FFFF04EF08F01200FFFF0D
:10001000FFFFFFFFFFFFFFFF0CEF08F01200FFFFE5
:10002000FFFFFFFFFFFFFFFFFFFFFFFFFFFFFFFFE0
:10003000FFFFFFFFFFFFFFFFFFFFFFFFFFFFFFFFD0
:10004000FFFFFFFFFFFFFFFFFFFFFFFFFFFFFFFFC0
:10005000FFFFFFFFFFFFFFFFFFFFFFFFFFFFFFFFB0
:10006000FFFFFFFFFFFFFFFFFFFFFFFFFFFFFFFFA0
:10007000FFFFFFFFFFFFFFFFFFFFFFFFFFFFFFFF90
:10008000FFFFFFFFFFFFFFFFFFFFFFFFFFFFFFFF80
:10009000FFFFFFFFFFFFFFFFFFFFFFFFFFFFFFFF70
:1000A000FFFFFFFFFFFFFFFFFFFFFFFFFFFFFFFF60
:1000B000FFFFFFFFFFFFFFFFFFFFFFFFFFFFFFFF50
:1000C000FFFFFFFFFFFFFFFFFFFFFFFFFFFFFFFF40
:1000D000FFFFFFFFFFFFFFFFFFFFFFFFFFFFFFFF30
:1000E000FFFFFFFFFFFFFFFFFFFFFFFFFFFFFFFF20
:1000F000FFFFFFFFFFFFFFFFFFFFFFFFFFFFFFFF10
:100100000200FC080000750100002B0000000E102A
:100110000000D201000006000000020130511F0B58
:10012000010801E012003051600BE842E842E84269
:10013000E842E842010801E01200345103E03405CE
:1001400001E012003151220A31E0030A24E0010AE1
:1001500015E0210A0DE0010A01E012000101F30E91
:10016000566F000E576F080E596F5A6B588121D089
:100170000101F30E566F000E576F1BD036C25EF1B1
:1001800037C25FF10101CA0E5B6F020E5C6F606BDC
:10019000616B5D8F12000101CA0E566F020E576F20
:1001A000070E596F5A6BC10E586F120032C2EEF033
:1001B0000101588F12000201CA6B4B0ECB6FCC6B42
:1001C000CD6BCE6BCF6B080ED06F0001E26B1A0EB9
:1001D000E66E010EE66E53EC09F0E552E5521E0E96
:1001E000E66E020EE66E53EC09F0E552E552400E63
:1001F000E66E4A0EE66E020EE66EE66A020EE66EE7
:100200008AEC09F0146E050EE15E1450F3CFEAF0AB
:10021000F4CFEBF00001EC6BED6BE36B1200D9CF88
:10022000E6FFE1CFD9FFFD0EDBCF08F0FE0EDBCFFE
:1002300009F0050E081801E1095002E0000E30D067
:10024000FB0EDBCF14F0FC0EDBCF15F00001EA5102
:10025000141816E1EB51151813E1400EE66E4A0E24
:10026000E66E020EE66EE66A020EE66E8AEC09F0B3
:10027000146E050EE15E1450F3CFEAF0F4CFEBF00C
:10028000FB0EDBCF14F0FC0EDBCF15F00001EC51C0
:10029000141805E1ED51151802E1E36BE86B010E4E
:1002A000E552E7CFD9FF1200D9CFE6FFE1CFD9FF62
:1002B0000001E26BEA51EB1102E1000E08D0EAC046
:1002C000E9FFEBC0EAFFEF50800B01E0010E0009EF
:1002D00045E1FC0EDBCF14F0EAC0E9FFEBC0EAFF1A
:1002E000EE52EF50D880145408E2EAC0E9FFEBC0A8
:1002F000EAFFEE52FC0EEFCFDBFFE26BFC0EDB50B1
:10030000E25D19E2E251EA6A4A0FE96E020EEA2260
:10031000EF50E66EE251E76EFD0EDBCFE9FFFE0E19
:10032000DBCFEAFFE750E926000EEA22E552E7506C
:10033000EF6EE22BE3D7400EE66E4A0EE66E020E3B
:10034000E66EE66A020EE66E8AEC09F0146E050EA1
:10035000E15E1450F3CFEAF0F4CFEBF00001E2518C
:10036000E552E7CFD9FF1200D9CFE6FFE1CFD9FFA1
:10037000A0940001E3510CE1FD0EDBCFE4F0FE0E92
:10038000DBCFE5F0FC0EDBCFE8F0010EE96FE36FA9
:10039000A084E552E7CFD9FF1200D9CFE6FFE1CF25
:1003A000D9FF030EE126A0940001E3512DE1DF6A9D
:1003B000FD0EDBCF08F0FE0EDBCF09F0DE5208C0E9
:1003C000DEFF09C0DDFFDD52DF2ADF50146E156A43
:1003D000FF0E141802E115500BE0010EDBCFE9FF10
:1003E000DB2A020EDBCFEAFF01E3DB2AEF50ECE170
:1003F000FD0EDBCFE4F0FE0EDBCFE5F0DFCFE8F063
:100400000001010EE96FE36FA084030EE15C02E2DC
:10041000E16AE552E16EE552E7CFD9FF1200D9CF8C
:10042000E6FFE1CFD9FF030EE126A0940001E351DE
:100430002EE1DF6AFD0EDBCF08F0FE0EDBCF09F008
:10044000DE5208C0DEFF09C0DDFFDD52DF2ADF50CB
:10045000146E156AFF0E141802E115500CE0010E1F
:10046000DBCFF6FFDB2A020EDBCFF7FF01E3DB2A4F
:100470000800F550EBE1FD0EDBCFE4F0FE0EDBCF24
:10048000E5F0DFCFE8F00001E96B010EE36FA08437
:10049000030EE15C02E2E16AE552E16EE552E7CF6C
:1004A000D9FF1200D9CFE6FFE1CFD9FF020EE12636
:1004B000A0940001EC51ED1102E1000E08D0ECC057
:1004C000E9FFEDC0EAFFEF50800B01E0010E0009EB
:1004D00006E1030EE35D01E1E36BE35102E1A08479
:1004E0007ED0020EE35D16E1E66A000EE66EE66A75
:1004F000010EE66E020EE66E8AEC09F0146E050E31
:10050000E15E1450F3CFECF0F4CFEDF00001030EF8
:10051000E36F64D0E30562E1400E146E156AE851A2
:10052000145C000E155803E2400EDF6E02D0E8C0E6
:10053000DFFFDF50E85DE86F8A0EE66F020EE76FBF
:10054000010EDFCFDBFFE95116E1010EDB5028E0A1
:10055000E4C0F6FFE5C0F7FF0800F550E6C0E9FF8C
:10056000E7C0EAFFEF6EE62B000EE723E42BE5235E
:10057000010EDB06EAD7010EDB5012E0E4C0E9FF12
:10058000E5C0EAFFEF50E6C0E9FFE7C0EAFFEF6E23
:10059000E62B000EE723E42BE523010EDB06EBD769
:1005A0000001E85107E1400EDF5C02E1020E01D0DC
:1005B000030EE36FDFCFE6FF8A0EE66E020EE66EF5
:1005C000010EE66E020EE66E8AEC09F0146E050E60
:1005D000E15E1450F3CFECF0F4CFEDF0A084020E06
:1005E000E15C02E2E16AE552E16EE552E7CFD9FF54
:1005F0001200019E0CD0019E09AE09D0066C071EA8
:10060000081E091EE86A072208220922018E09C075
:1006100003F008C002F007C013F006C012F09E0EEF
:10062000046E056A14EF04F0016A50EC04F068EC03
:1006300004F001B6F8EF03F001A205D001BAF8EF1B
:1006400003F0FFEF03F001BA0BEF04F001A005D0B7
:1006500001B8F8EF03F00BEF04F001B8FFEF03F07F
:10066000056A7F0E0A24046EE86A05220F50045EB4
:10067000E86A055A1A0E106E0A6A126A136A026A4A
:10068000036A0C50075E0D50085A0E50095A000EAE
:100690000A5A09E70C5007260D5008220E5009226D
:1006A000000E0A2201D0128AD89007360836093681
:1006B0000A36D8901236133602360336102EE1D79A
:1006C000095008100710D8A4128A14EF04F0006A29
:1006D0000EAE70EF03F00D6C0E1EE86A0E22001EC7
:1006E00009AE78EF03F0086C091EE86A0922001EC3
:1006F000B4EC1FF009BE88EF03F000AE000C086CEC
:10070000091EE86A0922046C051EE86A0522000C2D
:1007100000BE7FEF03F00188FF0C006AE86A0EAEAE
:100720009AEF03F00B6C0C1E0D1E0E1E0C220D22F8
:100730000E22001E09AEA5EF03F0066C071E081E70
:10074000091E072208220922001E76EC1FF009BEAE
:10075000BCEF03F000AE000C066C071E081E091E5D
:10076000E86A072208220922026C031E041E051EE5
:10077000032204220522000C00BEACEF03F0018826
:10078000FF0C016A50EC04F001B6CBEF03F001A2BC
:100790000FD001B407D07F0E096EFF0E086E076EF2
:1007A000066E25D0800E096E01D0096A000EF6D7BC
:1007B00001B0FBD7066A9F0E0A60EBD77E0E0A6473
:1007C000F4D79E0E0A5C07E0D8900932083207324F
:1007D00006320A2AF6D701A40AD0066C071E081EA4
:1007E000091EE86A07220822092209AEDED7120094
:1007F0007F0E0A6EFF0E096E086E076E12007F0EE6
:1008000001BEFF0E0A6E02D07F0E0A6E800E096EC8
:10081000086A076AF3D701AE04D0800E0A6E096A2F
:10082000F7D70A6A096AF4D703500210131012109E
:10083000F8E005BEF0D703BE0CD004500510EBE085
:10084000D89012361336023603360406D8A00506B1
:10085000F2D70550D4E10428D2E012AE11D07F0EB9
:10086000121402E113A00CD0132AE86A0222032218
:1008700007E3D880033202321332042A0428BFE08F
:100880000450C9E013C007F002C008F00334096E39
:1008900004300A6E09320A9E01BE0A8EFEEF03F092
:1008A00009360A3602E30184017E06E101800A6A04
:1008B000096A086A076A12000A2803E0D880093228
:1008C0001200D890093202E1018212000186120062
:1008D0000E360F3602E3018C017E06E101880F6AB5
:1008E0000E6A0D6A0C6A12000F2803E0D8800E32DF
:1008F0001200D8900E32EAE1018A12003031323310
:10090000343536373839414243444546000001000A
:10091000000060566C00180000000000000000009D
:1009200000000000000000FFFFFFFFFFFFFFFFFFD0
:10093000FFFFFFFFFFFFFFFFFFFFFFFFFFFFFFFFC7
:10094000FFFFFFFFFFFFFFFFFFFFFFFFFFFFFFFFB7
:10095000FFFFFFFFFFFFFFFFFFFFFFFFFFFFFFFFA7
:10096000FFFFFFFFFFFFFFFFFFFFFFFFFFFFFFFF97
:10100000DAEF1FF012001200EFEF18F012000000EC
:1010100000000000FFFFFFFF3AEF19F01200D9CFE8
:10102000E6FFE1CFD9FFE652A0940F015F6B626A41
:10103000536B020EE66EE66AE66A540EE66E0F0E1B
:10104000E66E9AEC1FF0146E050EE15E1450160E5B
:10105000616E0F019F0E5B6F7B0E606EDF6ADF506B
:10106000146E156A0C0E145C000E155810E2DF5059
:10107000040DF3CFE9FFF4CFEAFF000EE926020EDC
:10108000EA22EE6AEE6AEE6AEE6ADF2AE8D7648C3C
:101090000F015C6B6498649C62A607D062960101A4
:1010A000586B5D6B5E6B5F6BF7D70101010E716F63
:1010B000726F736B746B656BDF6A030EDF5C26E225
:1010C000EA6ADF34FE0BEA36E96E4E0EE926010EBF
:1010D000EA22EE6AED6AEA6ADF34FE0BEA36E96E6E
:1010E000480EE926010EEA22EE6AED6ADF50EA6A4E
:1010F000690FE96E010EEA22EF6ADF50EA6A6C0FAF
:10110000E96E010EEA22EF6ADF2AD7D70101080E45
:101110004E6F020E4F6F0F01160E536F0201300E0D
:10112000026F020E036F080E016F840E006F010143
:10113000416B406BE552E552E7CFD9FF1200D9CFA2
:10114000E6FFE1CFD9FFE6520101400507E164BAAD
:1011500005D0626A60806088020E406F6250040BA6
:1011600006E06050040B03E0629493EC0EF064B26E
:101170005AD06250010B09E06050010B06E04FDFCE
:10118000A0840101040E406F62906250100B06E0D3
:101190006050100B03E07EEC0EF0629862AC19D048
:1011A00060AC0FD0010EE66EE66A000EE66EE66AEF
:1011B000730EE66EE66A40EC1EF0146E060EE15EFB
:1011C0001450629C01016F5101E06F076F5101E102
:1011D000FDD96250200B05E06050200B02E064EC6A
:1011E0000EF06250020B14E06050020B11E0010E91
:1011F000E66EE66A000EE66EE66AE6687F0EE66E6A
:1012000040EC1EF0146E060EE15E14500F015F6B91
:10121000040E0101E76E4019E8AE02D0E73402D0B7
:10122000E750405D02E2A19439D060A636D0DF6A73
:10123000040EDF5C32E262A630D063CF66F10101BA
:101240006651780BE842E842E842676F629666B5FD
:1012500006D06751EA6A6C0FE96E010E05D067513E
:10126000EA6A690FE96E010EEA22EF70675103E145
:10127000AAEC0EF010D0000EE66EE66A660EE66E80
:10128000010EE66E720EE66EE66A40EC1EF0146E1B
:10129000060EE15E1450DF2ACBD7A194E552E55249
:1012A000E7CFD9FF1200D9CFE6FFE1CFD9FF020E79
:1012B000E126FD0EDBA407D0E66AFE0EDBCFE6FFDB
:1012C00014DAE552E552FD0EDBA208D0010EE66EFF
:1012D000FE0EDBCFE6FF09DAE552E552FE0EDB50EB
:1012E000156A530F146E0F0E152214C0DEFF15C0C1
:1012F000DDFFDECFE9FFDDCFEAFFFD0EDBCFEFFF45
:10130000020EE15C02E2E16AE552E16EE552E7CFEE
:10131000D9FF1200D9CFE6FFE1CFD9FF020EE126B7
:10132000FD0EDB500AE0FE0EEA6ADB34FE0BEA3605
:10133000E96E4E0EE926010E09D0FE0EEA6ADB3494
:10134000FE0BEA36E96E480EE926010EEA22EECFE0
:10135000DEFFEDCFDDFFD9CFE9FFDACFEAFFEE50B8
:10136000ED1003E1F36AF46A44D0DECFE9FFDDCF8C
:10137000EAFF020EE926000EEA22FB0EDBCFEEFFAB
:10138000FC0EDBCFEDFFDECFE9FFDDCFEAFFEE5253
:10139000FA0EDBCFEFFF400EDECFE9FFDDCFEAFF35
:1013A000E850EF16880EDECFE9FFDDCFEAFFE85008
:1013B000EF12FD0EDB500AE0FE0EEA6ADB34FE0B94
:1013C000EA36E96E4E0EE926010E09D0FE0EEA6AF3
:1013D000DB34FE0BEA36E96E480EE926010EEA22FE
:1013E000EF74DECF14F0DDCF15F014C0F3FF15C09D
:1013F000F4FF020EE15C02E2E16AE552E16EE552C1
:10140000E7CFD9FF1200D9CFE6FFE1CFD9FF020E17
:10141000E126FE0EDB5020E146C1E9FF47C1EAFFAD
:10142000EE52080EEF6E46C1E9FF47C1EAFF020E19
:10143000E926000EEA22300EEE6E020EED6E46C177
:10144000E9FF47C1EAFF8C0EEF6E4EC1E9FF4FC1C5
:10145000EAFF840EEF6E3BD0FD0EDB50E824166EE3
:10146000FE0EDB50040DF3501624040DF3CF14F0E0
:10147000F4CF15F0000E1426020E152214C0DEFF64
:1014800015C0DDFF840EDECFE9FFDDCFEAFFE850B7
:10149000EF12FD0EDB50E824166EFE0EDB50040D3D
:1014A000F3501624010F040DF3CF14F0F4CF15F010
:1014B000000E1426020E152214C0DEFF15C0DDFF3B
:1014C000840EDECFE9FFDDCFEAFFE850EF12020E17
:1014D000E15C02E2E16AE552E16EE552E7CFD9FF55
:1014E0001200D9CFE6FFE1CFD9FF64A84ED0FE0E9F
:1014F000EA6ADB34FE0BEA36E96E4E0EE926010E8F
:10150000EA22EE50EFCFEAFFE96E400EEE16EE6AE9
:10151000EE6AEE6AFE0EEA6ADB34FE0BEA36E96E2C
:101520004E0EE926010EEA22EE50EFCFEAFFE96EF9
:10153000EE7CFE0EEA6ADB34FE0BEA36E96E4E0EF6
:10154000E926010EEA22EF74400E146EFE0EEA6ADE
:10155000DB34FE0BEA36E96E4E0EE926010EEA2276
:10156000EE50EFCFEAFFE96E1450EF16FE0EEA6A76
:10157000DB34FE0BEA36E96E4E0EE926010EEA2256
:10158000EE50EFCFEAFFE96EEF7CE552E7CFD9FFEF
:101590001200646A606A0101406B1200010140514F
:1015A00014E1646A606A160E616E0F019F0E5B6F34
:1015B0007B0E606ED08EA284A084F28E64B602D0C0
:1015C0006486FCD70101010E406F120001017151C8
:1015D0004DE1010E716F725149E1010E726F020E01
:1015E000555D0DE14EC1E9FF4FC1EAFFEE52EF6AD2
:1015F0004EC1E9FF4FC1EAFFC80EEF6E120055055C
:1016000035E1686B44C1E9FF45C1EAFFEE52080EBF
:10161000EF6E44C1E9FF45C1EAFF020EE926000E64
:10162000EA22300EEE6E020EED6E44C1E9FF45C1B6
:10163000EAFF840EEF6E010E686F46C1E9FF47C1F5
:10164000EAFFEE52080EEF6E46C1E9FF47C1EAFF1E
:10165000020EE926000EEA22300EEE6E020EED6E4C
:1016600046C1E9FF47C1EAFF800EEF6E120001019B
:10167000736B746B020E555D18E146C1E9FF47C1FB
:10168000EAFFEE52080EEF6E46C1E9FF47C1EAFFDE
:10169000020EE926000EEA22380EEE6E020EED6E04
:1016A00046C1E9FF47C1EAFF1DD059510201365D2D
:1016B00001015A510201375904E236C259F137C2C9
:1016C0005AF1CAD84EC1E9FF4FC1EAFF020EE9261E
:1016D000000EEA22380EEE6E020EED6E4EC1E9FFEC
:1016E0004FC1EAFFC80EEF6E1200D9CFE6FFE1CF7F
:1016F000D9FF020EE126000EDE6E020EDD6EFD0E3B
:10170000DB50E824166EFE0EDB50040DF350162459
:10171000040DF4CF15F0D9CFE9FFDACFEAFFF3508B
:10172000EE261550ED22DECFE9FFDDCFEAFFEF9E7A
:10173000FD0EDB500AE1FE0EEA6ADB34FE0BEA36F0
:10174000E96E480EE926010E09D0FE0EEA6ADB3486
:10175000FE0BEA36E96E4E0EE926010EEA22DECFD6
:10176000EEFFDDCFEDFFDECFE9FFDDCFEAFFEF9C3F
:10177000DECFE9FFDDCFEAFF040EE926000EEA2204
:10178000EF8C020EE15C02E2E16AE552E16EE552A5
:10179000E7CFD9FF12006498010158BF2BD05DAF8D
:1017A00009D0020E556F745101E161DF0101726BC6
:1017B000716B120046C1E9FF47C1EAFFEE52080E05
:1017C000EF6E46C1E9FF47C1EAFF020EE926000EAF
:1017D000EA22300EEE6E020EED6E46C1E9FF47C101
:1017E000EAFF8C0EEF6E4EC1E9FF4FC1EAFF840E97
:1017F000EF6E1200020130AF0DD00101010E556FE6
:10180000735101E134DF0101726B716B705123E19F
:10181000E6EF0AF00101020E556F46C1E9FF47C12C
:10182000EAFFEE52080EEF6E46C1E9FF47C1EAFF3C
:10183000020EE926000EEA22300EEE6E020EED6E6A
:1018400046C1E9FF47C1EAFF840EEF6E726B716B10
:10185000705101E1BBDE1200D9CFE6FFE1CFD9FF25
:10186000E652080EDF6E0101595D000E5A590AE278
:1018700059C1DFFF545102E1010E03D0540502E1CA
:10188000020E546FDF50156AE850595D596F1550BC
:101890005A595A6F4EC1E9FF4FC1EAFFEE52DFCFEE
:1018A000EFFF380E626F020E636F58B118D0DF5031
:1018B0002DE056C1F6FF57C1F7FF562B000E5723F8
:1018C0000800F550E66E62C1E9FF63C1EAFF622BD2
:1018D000000E6323E552E750EF6EDF06E8D7DF50D6
:1018E00015E056C1E9FF57C1EAFF562B000E5723FA
:1018F000EF50E66E62C1E9FF63C1EAFF622B000EA2
:101900006323E552E750EF6EDF06E9D7E552E55273
:10191000E7CFD9FF1200D9CFE6FFE1CFD9FF020E02
:10192000E12644C1E9FF45C1EAFFEE52EFCFDFFFF8
:10193000DFCF14F0145001015E5D000E5F5902E22A
:101940005EC1DFFFDF50146E156AE8505E5D5E6FAA
:1019500015505F595F6F010EDB6ADF50F36E010EA9
:10196000DBCFF4FFF350F45C16E2010EDB50EA6AC1
:10197000380FE96E020EEA22EF50E66E5BC1E9FF16
:101980005CC1EAFF5B2B000E5C23E552E750EF6E73
:10199000010EDB2AE2D7000ED8805E55000E5F559F
:1019A00027E246C1E9FF47C1EAFFEE52080EEF6E9B
:1019B00046C1E9FF47C1EAFF020EE926000EEA220E
:1019C000380EEE6E020EED6E44C1E9FF45C1EAFF2E
:1019D000EF50400B06E146C1E9FF47C1EAFFC80EE0
:1019E00005D046C1E9FF47C1EAFF880EEF6E28D057
:1019F00046C1E9FF47C1EAFFEE52080EEF6E46C14D
:101A0000E9FF47C1EAFF020EE926000EEA22300E86
:101A1000EE6E020EED6E46C1E9FF47C1EAFF840E8D
:101A2000EF6E6051611107E005D061C1FAFF01015D
:101A30006051F96EFADF01015D9F705101E1C6DD71
:101A4000020EE15C02E2E16AE552E16EE552E7CFA7
:101A5000D9FF1200D9CFE6FFE1CFD9FFE65201014D
:101A6000588F020EE66EE66AE66A540EE66E0F0EB8
:101A7000E66E9AEC1FF0146E050EE15E1450DF6AFC
:101A8000DF50146E156A0C0E145C000E155810E22F
:101A9000DF50040DF3CFE9FFF4CFEAFF000EE92693
:101AA000020EEA22EE6AEE6AEE6AEE6ADF2AE8D7F2
:101AB000648CDF6A030EDF5C10E2DF50EA6A690FB4
:101AC000E96E010EEA22EF6ADF50EA6A6C0FE96EF6
:101AD000010EEA22EF6ADF2AEDD7020EE66EE66A11
:101AE000E66A420EE66E010EE66E9AEC1FF0146E88
:101AF000050EE15E1450649C0101080E4E6F020E4B
:101B00004F6F000E446F020E456F44C146F1476FA0
:101B100032C241F1415102E1100E12D0010EE66EC7
:101B2000E66A410EE66E010EE66E010EE66EE66AAC
:101B300040EC1EF0146E060EE15E14500101200E02
:101B4000406FE552E552E7CFD9FF1200800E020147
:101B5000305D58E10101C00E586F02013351030A94
:101B60002FE0010A09E0030A4BE10101140E566F50
:101B70003D0E576F120E3ED03251F66EF76AD89076
:101B8000F636F736D50EF6263D0EF7220900F5CFCC
:101B900056F10A00F5CF57F1020E0101F76A5625FA
:101BA000F66E5751F7220800F5CF59F1030EF76A88
:101BB0005625F66E5751F7220800F5CF5AF112005C
:101BC000030E325D1AE23251F66EF76AD890F6369D
:101BD000F736D70EF6263D0EF7220900F5CF56F15F
:101BE0000A00F5CF57F156C1F6FF57C1F7FF0800BD
:101BF000F5500101596F5A6B12000101586B120028
:101C00000101586B1200D9CFE6FFE1CFD9FF020ED8
:101C1000E1260201386B396B30511F0B020A11E0CB
:101C2000030A0CE0010A3CE10101588F02013881EE
:101C30000101640535E10201388332D00101588F7A
:101C40002FD00101588F020134BF0BD034510F0B3C
:101C5000E96EEA6AD890E936EA36480EE926010EBE
:101C60000AD034510F0BE96EEA6AD890E936EA36A9
:101C70004E0EE926010EEA22EECFDEFFEDCFDDFFAC
:101C8000DECFE9FFDDCFEAFFEF50800B09E0DECFCA
:101C9000E9FFDDCFEAFFEF50040B02E0010E386FE1
:101CA000010158AF07D0380E566F020E576F58819A
:101CB000020E596F020EE15C02E2E16AE552E16E4A
:101CC000E552E7CFD9FF12000F0153A115D044C14F
:101CD000E9FF45C1EAFFEF5080080DE14EC1E9FF81
:101CE0004FC1EAFFEF50840806E144C1E9FF45C156
:101CF000EAFF8C0EEF6E5391629A12006084629834
:101D000064820101010E656F000EE66EE66AE66E02
:101D1000E66A750EE66EE66A40EC1EF0146E060E7C
:101D2000E15E145012000101656B000EE66EE66A7A
:101D3000E66EE66A740EE66EE66A40EC1EF0146E1D
:101D4000060EE15E14506492609462A402D0629424
:101D5000FCD71200D9CFE6FFE1CFD9FFE65201014F
:101D60002D0E6F6FFD0E661553E17E0E6615E84071
:101D70007F0B040DF3CF44F1F4CF45F1000E44275F
:101D8000020E452344C146F145C147F1467544C1A1
:101D9000E9FF45C1EAFFEF503C0BE842E8420D087D
:101DA00035E1DF6A080EDF5C23E244C1E9FF45C18B
:101DB000EAFF020EE926000EEA22EE50EFCFEAFF1C
:101DC000E96EEF50E66EDF50EA6A300FE96E020E00
:101DD000EA22E552E750EF6E44C1E9FF45C1EAFF50
:101DE000020EE926000EEA22EE2AEF22DF2ADAD7D7
:101DF00044C1E9FF45C1EAFF020EE926000EEA22CE
:101E0000300EEE6E020EED6E0DD807D03AD805D02A
:101E1000FD0E6615040801E159D8E552E552E7CFF9
:101E2000D9FF12000101546B706B736B746B686B9C
:101E3000556B4EC1E9FF4FC1EAFFEF9E4E754EC193
:101E4000E9FF4FC1EAFFEF9E4E7546C1E9FF47C16A
:101E5000EAFFEF9E586B596B5A6B5D6B5E6B5F6B65
:101E60008FD8000EE66EE66AE66EE66A030EE66E50
:101E7000E66A40EC1EF0146E060EE15E1450CBEFE5
:101E80000BF0020E0101555D02E18BEF0CF0556B7A
:101E900068511AE146C1E9FF47C1EAFFEE52080E58
:101EA000EF6E46C1E9FF47C1EAFF020EE926000EC8
:101EB000EA22300EEE6E020EED6E46C1E9FF47C11A
:101EC000EAFF8C0EEF6E1200686B1200D9CFE6FFAE
:101ED000E1CFD9FFE6524EC1E9FF4FC1EAFFEF5013
:101EE000400B01E0010EDF6E01014E75080E405DF2
:101EF0000BE132C25CFF0F015C5103E00101100EE7
:101F000002D00101040E406F550526E14EC1E9FFE4
:101F10004FC1EAFF020EE926000EEA22380EEE6EED
:101F2000020EED6E99DC020E0101545D06E14EC118
:101F3000E9FF4FC1EAFF840E0DD0DF5006E14EC12C
:101F4000E9FF4FC1EAFFC80E05D04EC1E9FF4FC1FE
:101F5000EAFF880EEF6E0FD05DAF0CD060516111BB
:101F600007E005D061C1FAFF01016051F96EFADFA7
:101F700001015D9F556BE552E552E7CFD9FF120095
:101F800002013051600BE842E842E842E842E84290
:101F9000000901E0120031510C0A50E00B0A3FE049
:101FA0000C0A31E0010A22E00B0A1EE0020A1CE0E2
:101FB000030A18E0080A10E0010A0CE00F0A08E022
:101FC000030A01E012000101588F080E406F120051
:101FD000A6EF0DF02AEF0DF00101410E566F010E34
:101FE000576F0CD003EF0EF01FEF10F034510101CA
:101FF000566F576B420E5627010E57235881010E1C
:10200000596F588F12000101588F02013451EA6A4A
:10201000420FE96E010EEA2232C2EFFF1200000EFB
:10202000E66EE66AE66EE66A020EE66EE66A40EC88
:102030001EF0146E060EE15E145012001200D9CF8D
:10204000E6FFE1CFD9FF050EE1260201320510E1DE
:1020500030511F0B00090CE10101588F030E0201E2
:10206000315D04E10101010E646F02D00101646B76
:102070000201325101E011D130511F0B020801E081
:102080000CD134510F0B000901E107D134510F0B72
:10209000020801E202D1200E0101405D01E0FDD005
:1020A000588F020134BF16D034510F0BE96EEA6A23
:1020B000D890E936EA36480EE926010EEA22EECF3C
:1020C000DEFFEDCFDDFF34510F0BEA6A6C0FE96ED6
:1020D000010E15D034510F0BE96EEA6AD890E9363B
:1020E000EA364E0EE926010EEA22EECFDEFFEDCFF4
:1020F000DDFF34510F0BEA6A690FE96E010EEA2227
:10210000020EEFCFDBFFD950020FE96EDACFEAFF04
:10211000EF50010B03E1000EDF9401D0DF8434BFE8
:102120000BD034510F0BE96EEA6AD890E936EA36E3
:10213000480EE926010E0AD034510F0BE96EEA6A07
:10214000D890E936EA364E0EE926010EEA22DECFB5
:10215000EEFFDDCFEDFF030E315D20E1DECFE9FFC5
:10216000DDCFEAFFEF50800B11E034BF07D03451D0
:102170000F0BEA6A6C0FE96E010E06D034510F0B9B
:10218000EA6A690FE96E010EEA22EF82840EDECF61
:10219000E9FFDDCFEAFFE850EF127FD0DF74DECF3A
:1021A000E9FFDDCFEAFFEF50800B1BE0DECFE9FF58
:1021B000DDCFEAFFEF9EDECFE9FFDDCFEAFFEF8C58
:1021C000020EE66EE66ADECFE6FFDDCFE6FF050E25
:1021D000E66EE66A40EC1EF0146E060EE15E1450E8
:1021E00005D0DECFE9FFDDCFEAFFEF8CDF74D950F9
:1021F000020FE96EDACFEAFFEF50020B07E1DECF04
:10220000E9FFDDCFEAFFEF50800B2BE0020134BF86
:1022100007D034510F0BEA6A6C0FE96E010E06D03D
:1022200034510F0BEA6A690FE96E010EEA22EF9250
:102230003B0E146EDECFE9FFDDCFEAFFE850EF166C
:10224000020EE66EE66ADECFE6FFDDCFE6FF050EA4
:10225000E66EE66A40EC1EF0146E060EE15E145067
:1022600007D03B0EDECFE9FFDDCFEAFFE850EF16E7
:10227000020134510F0B156A530F146E0F0E152205
:10228000030E14C0DBFF040E15C0DBFF030EDBCF13
:10229000E9FF040EDBCFEAFFEF90050EE15C02E2FE
:1022A000E16AE552E16EE552E7CFD9FF1200D9CFDE
:1022B000E6FFE1CFD9FFE652DF6ADFCF14F0FE0E72
:1022C000DB50E76E1418E8AE02D0E73402D0E750D6
:1022D000145C02E2DF2AF1D7E552E552E7CFD9FFDD
:1022E0001200D9CFE6FFE1CFD9FFE652DF6ADFCF98
:1022F00014F0FE0EDB500A0DF350E76E1418E8AE32
:1023000002D0E73402D0E750145C06E2640EE66EB9
:10231000CEDFE552DF2AEBD7E552E552E7CFD9FF12
:102320001200D9CFE6FFE1CFD9FFFE0EDB40E84037
:102330003F0B010BE8B08B86E8A08B96FE0EDB40CE
:102340007F0B010BE8B08B8CE8A08B9CFE0EDB5062
:10235000010BE8B08A8EE8A08A9EE552E7CFD9FF4C
:102360001200D9CFE6FFE1CFD9FF949094929494D4
:102370009398FE0EDB50010BE8B08B80E8A08B90A9
:10238000FE0EDB407F0B010BE8B08B82E8A08B9246
:10239000FE0EDB40E8403F0B010BE8B08B84E8A069
:1023A0008B94FE0EDB40E840E8401F0B010BE8B0C9
:1023B0008A88E8A08A98E552E7CFD9FF1200948076
:1023C0009482948493881200D9CFE6FFE1CFD9FF9D
:1023D000020EE12694908B9EDE6ADD6ADECF14F059
:1023E000DDCF15F0D890155004E6100E145C000EE9
:1023F000155827E2FD0EDBCF16F0FE0EDBCF17F0EF
:10240000DECF18F0DDCF19F00F0ED8801856000E71
:102410001956185016C014F017C015F005E0D890E2
:1024200015321432E804FBE1010E1414E8B08B807D
:10243000E8A08B908A9C8A8CDF2A010ECFE3DB2AEE
:10244000CDD78B8E9480020EE15C02E2E16AE55208
:10245000E16EE552E7CFD9FF1200D9CFE6FFE1CF19
:10246000D9FF040EE1268BC106F08CC107F08DC1A7
:1024700008F08EC109F0FBEC02F007C014F008C0B0
:1024800015F009C016F00AC017F0180E0C6E0D0EEC
:102490000D6E8F0E0E6E3E0E0F6E14EC03F0C1EC3F
:1024A00003F006C0DEFF07C0DEFF08C0DEFF09C084
:1024B000DDFFDD52DD52DECF06F0DECF07F0DECFEE
:1024C00008F0DDCF09F0DD52DD52040EE15C02E2DE
:1024D000E16AE552E16EE552E7CFD9FF1200D9CFAC
:1024E000E6FFE1CFD9FF040EE126B7DF06C0DEFF2D
:1024F00007C0DEFF08C0DEFF09C0DDFFDD52DD5290
:1025000001018F51146E100E9011156E8FC1E6FFF0
:10251000E66E5ADFE552E5520E0E186ED9CFE9FF8E
:10252000DACFEAFFE8501F0BEECF14F0EECF15F034
:10253000EECF16F0EECF17F007E0D8901732163234
:1025400015321432E806F9E1158C14C0E6FF15C007
:10255000E6FF3ADFE552E552000E01018F11146EDD
:1025600090C115F0E66E90C1E6FF2EDFE552E55210
:10257000D9CFE9FFDACFEAFFEECF14F0EECF15F0B6
:10258000EECF16F0EFCF17F03F0E1516166A176A4A
:10259000158C14C0E6FF15C0E6FF16DFE552E552C4
:1025A000040EE15C02E2E16AE552E16EE552E7CF3A
:1025B000D9FF120001018F51146E010E9011156E9A
:1025C0008FC1E6FFE66E00DFE552E5528FC1E6FF00
:1025D00090C1E6FFF9DEE552E5526FEF12F0D9CF78
:1025E000E6FFE1CFD9FF040EE66E9BDEE5528A9A44
:1025F000FE0EDBCFE6FFB5DEE5528A8AE0DEE5526D
:10260000E7CFD9FF1200D9CFE6FFE1CFD9FFFE0E09
:10261000DB380F0BE66EE3DFE552FE0EDBCFE6FFA5
:10262000DEDFE552E552E7CFD9FF1200D9CFE6FF52
:10263000E1CFD9FF050EE66E74DEE5528A9AFE0EF2
:10264000DBCFE6FF8EDEE5528A8AB9DEE552E7CFC0
:10265000D9FF1200D9CFE6FFE1CFD9FFFE0EDB385C
:102660000F0BE66EE3DFE552FE0EDBCFE6FFDEDFAB
:10267000E552E552E7CFD9FF1200D9CFE6FFE1CF0F
:10268000D9FFE652030EE66EAADFE552050EE66EAE
:1026900028DEE552030EE66EA2DFE552050EE66E79
:1026A00020DEE552030EE66E9ADFE552050EE66E79
:1026B00018DEE552020EE66E92DFE552020EE66E7D
:1026C00010DEE552280EE66E9EDFE552010EE66E44
:1026D00008DEE552080EE66E96DFE552010EE66E64
:1026E00000DEE552010EE66E8EDFE552020EE66E6A
:1026F000F8DDE552060EE66E86DFE552010EE66E67
:10270000F0DDE5520C0EE66E7EDFE552DF6ADFCFCC
:1027100014F0200EE76E1418E8AE02D0E73402D0B1
:10272000E750145C0DE2DFCFE9FFEA6AE9BEEA6830
:10273000A00EE926010EEA22200EEF6EDF2AE7D76F
:10274000E552E552E7CFD9FF1200D9CFE6FFE1CF3E
:10275000D9FF050EE126010E8BC1DBFF020E8CC1F5
:10276000DBFF030E8DC1DBFF040E8EC1DBFFDF6AD2
:10277000DFCF14F0080EE76E1418E8AE02D0E7348D
:1027800002D0E750145C63E2010EDBCF06F0020ECC
:10279000DBCF07F0030EDBCF08F0040EDBCF09F030
:1027A0000A0E0B6E0C6A0D6A0E6A8DEC03F0025075
:1027B000300FE66E070ED880DF54E96EEA6AE9BE94
:1027C000EA68A00EE926010EEA22E552E750EF6E14
:1027D000010EDBCF14F0020EDBCF15F0030EDBCFC2
:1027E00016F0040EDBCF17F014501510161017104A
:1027F0000DE1070ED880DF54E96EEA6AE9BEEA68A7
:10280000A00EE926010EEA22200EEF6E010EDBCFAC
:1028100006F0020EDBCF07F0030EDBCF08F0040E4C
:10282000DBCF09F00A0E0B6E0C6A0D6A0E6A8DEC96
:1028300003F0010E06C0DBFF020E07C0DBFF030E34
:1028400008C0DBFF040E09C0DBFFDF2A91D70101BE
:10285000480EA86F7A0EA96F050EE15C02E2E16AEC
:10286000E552E16EE552E7CFD9FF1200D9CFE6FF7E
:10287000E1CFD9FF020EE126E66A53DDE5528A9ADE
:102880009EDD8150100B01E0010EE76E010EE7CFD7
:10289000DBFF8250040B01E0010E146E010EDBCF52
:1028A000E6FFDB50E552E7241424E76E010EE7CF84
:1028B000DBFF8250020B01E0010E146E010EDBCF34
:1028C000E6FFDB50E552E7241424E76E010EE7CF64
:1028D000DBFF8250010B146E010EDBCFE6FFDB50F5
:1028E000E552E7241424E76E010EE7CFDBFFDB504F
:1028F0000F0AE76E010EE7CFDBFFDB50060D010E7E
:10290000F3CFDBFF8A8AE66E0CDDE5528A9A010E70
:10291000DBCFE6FF8250010B010A600DF350E55258
:10292000E724E76E010EE7CFDBFFDBCFE6FF825047
:10293000020B01E0010E010A030DF350E552E724FA
:10294000E76E010EE7CFDBFF8A8ADB50010B01083F
:1029500003E10101350E02D00101300EB76F010E07
:10296000DB407F0BE76E010EE7CFDBFF0A0E146E34
:102970000E6E010EDBCF09F0E8EC1FF00950DF6EA0
:10298000DF5003E10101200E03D0300EDF240101EE
:10299000B46F010EDBCFE6FF0A0EDF02F350E55203
:1029A000E75CDF6E300EDF24B56F410EB06F540E62
:1029B000B16FB26F3D0EB36F2E0EB66F640EB86F6F
:1029C000420EB96F020EE15C02E2E16AE552E16E8D
:1029D000E552E7CFD9FF1200D9CFE6FFE1CFD9FF0B
:1029E000FD0EDBCF14F0FE0EDBCF15F0030ED890FA
:1029F00015321432E804FBE1FD0E14C0DBFFFE0EBD
:102A000015C0DBFFD950FD0FE96EFF0EDA20EA6E2C
:102A1000EE50ED1002E1800E2FD0FD0EDBCF14F052
:102A2000FE0EDBCF15F0D890155004E6010E145CB5
:102A3000000E155815E3FD0EDBCF16F0FE0EDBCFB2
:102A400017F0173404E216501008000E175408E36C
:102A5000FD0EDBCFE9FFFE0EDBCFEAFFE90617D064
:102A6000D950FD0FE96EFF0EDA20EA6E110EEE1856
:102A700006E1ED5004E1C00EE66EC5DD11D0FD0E9D
:102A8000DBCFE9FFFE0EDBCFEAFF020EE95E000EB0
:102A9000EA5AA00EE926010EEA22EF50E66EDADDD0
:102AA000E552E552E7CFD9FF120001018651060A2F
:102AB00039E0030A2FE0010A26E0070A1EE0010AB6
:102AC00014E0030A0AE0010A01E012000101200EED
:102AD000AC6FAD6FAE6F310E2CD00101200EAC6F1C
:102AE000AD6F310EAE6F300E24D00101200EAC6FF1
:102AF000310EAD6F300EAE6F1CD00101200EAC6FE9
:102B0000AD6F310E0CD00101200EAC6F310EAD6FE8
:102B1000300E05D00101310EAC6F300EAD6FAE6FCF
:102B20006B0E07D00101200EAC6FAD6F310EAE6F92
:102B30004D0EAF6F1200D9CFE6FFE1CFD9FF020EE5
:102B4000E126DE6ADD6A060EE66E91EC11F0E552D2
:102B50008A9A35DC82B43DD0010E01019825986F28
:102B6000000E9921996FE83437E29851E808030E76
:102B7000995532E28629866F0A0E0B6E0C6A0D6A31
:102B80000E6A87C106F088C107F089C108F08AC1C2
:102B900009F03EEC1FF002C087F103C088F104C0C9
:102BA00089F105C08AF1060E0101E76E8619E8AECB
:102BB00002D0863503D0E750D88086550BE2060E4A
:102BC000866F400E876F420E886F0F0E896F8A6B7B
:102BD00001D00101986B996B81B82FD0010E9A2515
:102BE0009A6F000E9B219B6FE83429E29A51E80806
:102BF000030E9B5524E28605866F0A0E0B6E0C6A47
:102C00000D6A0E6A87C106F088C107F089C108F015
:102C10008AC109F08DEC03F006C087F107C088F186
:102C200008C089F109C08AF10101863506E3866B87
:102C3000010E876F886B896B8A6B9A6B9B6B82B274
:102C400036D0010E9C259C6F000E9D219D6FE834AF
:102C500030E29C51E808030E9D552BE2010EDE6E1A
:102C6000DD6A870EE96E010EEA6E8B51EE248B6FE2
:102C70008C51EE208C6F8D51EE208D6F8E51EE2099
:102C80008E6FE834010E8E1909E6D880800E8B55C0
:102C9000C30E8C55C90E8D55010E8E5508E2800E5F
:102CA0008B6FC30E8C6FC90E8D6F010E8E6F9C6B78
:102CB0009D6B82B027D0010E9E259E6F000E9F2136
:102CC0009F6FE83421E29E51E808030E9F551CE2F5
:102CD000010EDE6EDD6A870EE96E010EEA6EEE50C1
:102CE0008B5D8B6FEE508C598C6FEE508D598D6FC4
:102CF000EE508E598E6F800E8E1504E08B6B8C6BB0
:102D00008D6B8E6B9E6B9F6B8A8AD9CFE9FFDACF72
:102D1000EAFF010EEE1805E1ED5003E16FEC12F051
:102D200014DD020EE15C02E2E16AE552E16EE55279
:102D3000E7CFD9FF1200D9CFE6FFE1CFD9FFE652A6
:102D4000C0C106F0C1C107F0C2C108F0C3C109F09B
:102D5000C4C10BF0C5C10CF0C6C10DF0C7C10EF067
:102D600076EC1FF00650DF6EDFCF14F0156A166A9E
:102D7000176A14C006F015C007F016C008F017C097
:102D800009F0C4C10BF0C5C10CF0C6C10DF0C7C13C
:102D90000EF03EEC1FF002500101C05DC06F035009
:102DA000C159C16F0450C259C26F0550C359C36F96
:102DB0000A0E0B6E0C6A0D6A0E6AC4C106F0C5C11C
:102DC00007F0C6C108F0C7C109F076EC1FF006C0D5
:102DD000C4F107C0C5F108C0C6F109C0C7F1DF5092
:102DE000E552E552E7CFD9FF1200D9CFE6FFE1CF98
:102DF000D9FFE652300EF36EFE0EDBCFF4FFF35038
:102E0000F45C07E3FE0EDB50390803E3010EDF6ECE
:102E100001D0DF6ADF50E552E552E7CFD9FF12005B
:102E2000D9CFE6FFE1CFD9FFE652610EF36EFE0E79
:102E3000DBCFF4FFF350F45C09E3FE0EDB507A08BD
:102E400005E3FE0EDB509F0F410F02D0FE0EDB505C
:102E5000DF6EDF50E552E552E7CFD9FF1200D9CF40
:102E6000E6FFE1CFD9FFE652DF6AFE0EDBCFE6FFD9
:102E7000D7DFE552E76EFE0EE7CFDBFFFE0EDBCFBE
:102E8000E6FFB3DFE55201080BE0410E146EFE0EC3
:102E9000DB50D880145406E3FE0EDB50460802E3F4
:102EA000010EDF6EDF50E552E552E7CFD9FF120089
:102EB000D9CFE6FFE1CFD9FF040EE126FE0EDBCF2E
:102EC000E6FFAEDFE552E76EFE0EE7CFDBFFFE0E5C
:102ED000DBCFE6FF8ADFE552010804E1FE0EDB509E
:102EE000D00F04D0FE0EDB50BF0F0A0F146E000E81
:102EF00014C0DFFF010EDB6A020EDB6A030EDB6A21
:102F0000DECF06F0DECF07F0DECF08F0DDCF09F030
:102F1000DD52DD52040EE15C02E2E16AE552E16E4F
:102F2000E552E7CFD9FF1200D9CFE6FFE1CFD9FFB5
:102F3000070EE126DFEC11F08B809490DE6ADD6AEB
:102F4000020EE66E91EC11F0E5528A9A040EDB6AED
:102F5000050EDB6A040EDBCF14F0050EDBCF15F097
:102F6000D890155004E6100E145C000E15582CE293
:102F70008B90DECF16F0DDCF17F0DE501624146EE6
:102F8000DD501720156E14C0DEFFDD6E8B80825081
:102F9000020B01E0010E010BE76E060EE7CFDBFF2F
:102FA000DB50E76E000EDFCF14F0010EDBCF15F023
:102FB000E750141214C0DEFF15C0DDFF040EDB2A3B
:102FC000050EC8E3DB2AC6D78A8ADECF14F0DDCF30
:102FD00015F0D89015321432FF0E14160F0E151678
:102FE00014C0DEFF15C0DDFFD9CFE9FFDACFEAFF5D
:102FF000020EEECFDBFF030EEDCFDBFF040EDB6A2C
:10300000050EDB6ADECF14F0DDCF15F0E80E145CA0
:10301000030E15581FE3DECF14F0DDCF15F0E80ED8
:10302000145E030E155A14C0DEFF15C0DDFF010E3D
:10303000E76E040EDBCF14F0050EDBCF15F0E75082
:103040001426000E1522040E14C0DBFF050E15C059
:10305000DBFFD8D7040EDBCF14F0050EDBCF15F065
:10306000300E14240101BC6F040EDB6A050EDB6A0E
:10307000DECF14F0DDCF15F0640E145C000E155891
:103080001FE3DECF14F0DDCF15F0640E145E000EEA
:10309000155A14C0DEFF15C0DDFF010EE76E040EE9
:1030A000DBCF14F0050EDBCF15F0E7501426000E31
:1030B0001522040E14C0DBFF050E15C0DBFFD8D7A8
:1030C000040EDBCF14F0050EDBCF15F0300E142408
:1030D0000101BD6F040EDB6A050EDB6ADECF14F062
:1030E000DDCF15F00A0E145C000E15581FE3DECF7D
:1030F00014F0DDCF15F00A0E145E000E155A14C040
:10310000DEFF15C0DDFF010EE76E040EDBCF14F00D
:10311000050EDBCF15F0E7501426000E1522040E25
:1031200014C0DBFF050E15C0DBFFD8D7040EDBCFC4
:1031300014F0050EDBCF15F0300E14240101BE6F24
:10314000DECF14F0DDCF15F0300E1424BF6F1C0E4F
:10315000F36E040EF3CFDBFF050EDB6A040EDBCF4C
:1031600014F0050EDBCF15F0D890155004E61F0EB5
:10317000145C000E15581FE2040EDBCFE9FF050EAC
:10318000DBCFEAFFA00EE926010EEA22EF5030085D
:1031900012E1040EDBCFE9FF050EDBCFEAFFA00E44
:1031A000E926010EEA22200EEF6E040EDB2A050E40
:1031B000D5E3DB2AD3D7020EDBCF14F0030EDBCF2F
:1031C00015F014C0F3FF15C0F4FF070EE15C02E236
:1031D000E16AE552E16EE552E7CFD9FF1200DACF9E
:1031E000E4FFE2CFDAFFE9CFE4FFEACFE4FFF6CF76
:1031F000E4FFF7CFE4FFF5CFE4FFF3CFE4FFF4CF34
:10320000E4FFFACFE4FF00EE00F0140EE80403E35D
:10321000EECFE4FFFBD700EE14F0080EE80403E362
:10322000EECFE4FFFBD7E6529FEC08F0E55200EE4C
:103230001BF0080EE80403E3E5CFEDFFFBD700EE3B
:1032400013F0140EE80403E3E5CFEDFFFBD7E5CF61
:10325000FAFFE5CFF4FFE5CFF3FFE5CFF5FFE5CFCC
:10326000F7FFE5CFF6FFE5CFEAFFE5CFE9FFE5CFD2
:10327000DAFF1100D8CFE4FFE0CFE4FFE46EDACF4D
:10328000E4FFE652E552E5CFDAFFE550E5CFE0FF97
:10329000E5CFD8FF10000AD80101955105E10101E1
:1032A000405102E1CEEC0AF06CDAF6D70F0EC112F3
:1032B00002D80FEF08F0800E8B6E370E946E600E02
:1032C0008A6E100E936E7E6A7F6ADAEC12F03DEC25
:1032D00013F0A5EC13F036EF14F0D9CFE6FFE1CFF1
:1032E000D9FF060EE12600010D0E606F0A0E616F18
:1032F000FE0EDB50050A01E1F5D1010A52E0070A92
:103300004BE0010A0AE0030A01E00FD24F0E626FA0
:103310004B0E636F040EDF6E08D2010EF36E030EC8
:10332000F3CFDBFF0101800EC46F960EC56F980EC0
:10333000C66FC76B020EDF6E8BC1C0F18CC1C1F1CD
:103340008DC1C2F18EC1C3F1DB6A080EF36E020EAD
:10335000DBCFF4FFF350F45C01E3E7D19BEC16F014
:10336000E76E010EE7CFDBFFDB5003E1030EDB501E
:1033700010E1010EDB50300FE66EDF50DF2AEA6A03
:10338000600FE96E000EEA22E552E750EF6E030E81
:10339000DB6A020EDB2AD9D7450E626F520E636FCD
:1033A00045D1040E96C1DBFF050E97C1DBFF040E6D
:1033B000DBCF14F0050EDBCF15F0D890155004E6E6
:1033C000E80E145C030E155801E2B0D0E80E146E3E
:1033D000030E156E040EDBCF08F0050EDBCF09F0EF
:1033E00014C00DF015C00EF067EC03F008C062F0D9
:1033F00008C016F0176A16BE1768E80E1702F3CF5A
:1034000017F0030E1602F3501726E80E1602F3CF3C
:1034100016F0F4501726040EDBCF08F0050EDBCFB4
:1034200009F0F350085C146E17500958156E040E1D
:1034300014C0DBFF050E15C0DBFF300E0001622556
:10344000626F640E146E156A040EDBCF08F0050E71
:10345000DBCF09F014C00DF015C00EF067EC03F0DF
:1034600008C063F008C016F0176A16BE1768640E2D
:103470001702F3CF17F01602F3CF16F0F450172609
:10348000040EDBCF08F0050EDBCF09F0F350085C2B
:10349000146E17500958156E040E14C0DBFF050E8C
:1034A00015C0DBFF300E00016325636F0A0E146E3A
:1034B000156A040EDBCF08F0050EDBCF09F014C04F
:1034C0000DF015C00EF067EC03F008C064F008C002
:1034D00016F0176A16BE17680A0E1702F3CF17F018
:1034E0001602F3CF16F0F4501726040EDBCF08F0C7
:1034F000050EDBCF09F0F350085C146E1750095825
:10350000156E040E14C0DBFF050E15C0DBFF300E78
:1035100000016425646F040EDBCF14F0050EDBCFD1
:1035200015F0300E1424656F060EFED0040EDBCFAE
:1035300014F0050EDBCF15F0D890155004E6640E9C
:10354000145C000E155875E3640E146E156A040EB3
:10355000DBCF08F0050EDBCF09F014C00DF015C06D
:103560000EF067EC03F008C062F008C016F0176AAE
:1035700016BE1768640E1702F3CF17F01602F3CFCA
:1035800016F0F4501726040EDBCF08F0050EDBCF43
:1035900009F0F350085C146E17500958156E040EAC
:1035A00014C0DBFF050E15C0DBFF300E00016225E5
:1035B000626F0A0E146E156A040EDBCF08F0050E5A
:1035C000DBCF09F014C00DF015C00EF067EC03F06E
:1035D00008C063F008C016F0176A16BE17680A0E16
:1035E0001702F3CF17F01602F3CF16F0F450172698
:1035F000040EDBCF08F0050EDBCF09F0F350085CBA
:10360000146E17500958156E040E14C0DBFF050E1A
:1036100015C0DBFF300E00016325636F040EDBCFA6
:1036200014F0050EDBCF15F0300E1424646F050E78
:103630007BD0040EDBCF14F0050EDBCF15F0D89055
:10364000155004E60A0E145C000E155840E30A0EED
:10365000146E156A040EDBCF08F0050EDBCF09F0FF
:1036600014C00DF015C00EF067EC03F008C062F056
:1036700008C016F0176A16BE17680A0E1702F3CFB5
:1036800017F01602F3CF16F0F4501726040EDBCF16
:1036900008F0050EDBCF09F0F350085C146E1750EC
:1036A0000958156E040E14C0DBFF050E15C0DBFFB4
:1036B000300E00016225626F040EDBCF14F0050EA0
:1036C000DBCF15F0300E1424636F040E2DD0040EE2
:1036D000DBCF14F0050EDBCF15F0300E1424626F33
:1036E000030E22D0460E626F690E636F720E646F16
:1036F0006D0E656F770E666F610E676F720E686F85
:10370000650E696F200E6A6F560E6B6F650E6C6FDB
:10371000720E6D6F2E0E6E6F300E6F6F360E706FF5
:10372000716F2E0E726F130EDF6EDF50DF2AEA6AA2
:10373000600FE96E000EEA220D0EEF6EDF50DF2AF9
:10374000EA6A600FE96E000EEA220A0EEF6EDFCF22
:10375000E6FF600EE66E000EE66EB4EC01F0E55298
:10376000E552E5520101916B926B936B946B060EDF
:10377000E15C02E2E16AE552E16EE552E7CFD9FF92
:103780001200D9CFE6FFE1CFD9FF050EE126200ECA
:103790000101E76E4019E8AE02D0E73402D0E750ED
:1037A000405D03E36450020B04E00101D66BD76B6C
:1037B000F3D1010E0101D625D66F000ED721D76FA8
:1037C000E80ED6192AE1030ED71927E10101600E90
:1037D0008B6F560E8C6F6C0E8D6F8E6B6FEC12F0C4
:1037E000A5EC13F00101916B926B936B946B400EFF
:1037F000E66EA00EE66E000EE66E54EC01F0E552A9
:10380000E552E552E66ED950010FE96EDACFEAFFD4
:10381000E552E750EE6EED6ABFD1D890D75104E67D
:10382000D00ED65D070ED75901E2B6D1D00ED66FB5
:10383000070ED76F0001E35101E0ACD1400EE66EF8
:10384000A00EE66E000EE66E54EC01F0E552E55275
:10385000E552DF6EDF5001E19DD1030EDB6ADF50E0
:10386000F36E030EDBCFF4FFF350F45C01E392D16F
:10387000030EDB50EA6AA00FE96E000EEA22040E86
:10388000EFCFDBFF0101D451D51101E020D1040EAF
:10389000DBCFE6FFF5EC16F0E55201082AE1040E55
:1038A000DB50D00F146E156A166A176A91C106F0C4
:1038B00092C107F093C108F094C109F00A0E0B6E93
:1038C0000C6A0D6A0E6A3EEC1FF0025000011424CF
:1038D0000101916F0350000115200101926F045006
:1038E000000116200101936F05500001172001010E
:1038F0002CD1480E146EE66E040EDBCFE6FF10EC02
:1039000017F0E552E552E7CF14F0145C0AE1010E1E
:103910000101D46FD56B0101916B926B936B946B2A
:1039200036D1440E146EE66E040EDBCFE6FF10ECCB
:1039300017F0E552E552E7CF14F0145C11E1910E57
:10394000E96E010EEA6EEE5001018B5D8B6FEE5059
:103950008C598C6FEE508D598D6FEE508E594DD025
:10396000520E146EE66E040EDBCFE6FF10EC17F07D
:10397000E552E552E7CF14F0145C02E1020EA2D04A
:10398000530E146EE66E040EDBCFE6FF10EC17F05C
:10399000E552E552E7CF14F0145C11E191C18BF1CF
:1039A00092C18CF193C18DF194C18EF16FEC12F044
:1039B000010EE66E92DCE552A5EC13F0E8D0550E50
:1039C000146EE66E040EDBCFE6FF10EC17F0E55246
:1039D000E552E7CF14F0145C16E1910EE96E010E8A
:1039E000EA6E01018B51EE248B6F8C51EE208C6FAF
:1039F0008D51EE208D6F8E51EE208E6F6FEC12F098
:103A0000A5EC13F030D0560E146EE66E040EDBCF2C
:103A1000E6FF10EC17F0E552E552E7CF14F0145C26
:103A200024E1C70E01018F15146EFF0E9015156E5F
:103A3000166A176A15AE02D01668176891C118F099
:103A4000380E1816196A1A6A1B6A1850141219507F
:103A500015121A5016121B50171214C08FF115C0F0
:103A600090F16FEC12F0010E2DD0470E146EE66E41
:103A7000040EDBCFE6FF10EC17F0E552E552E7CF7E
:103A800014F0145C02E1040E1DD0460E146EE66EB6
:103A9000040EDBCFE6FF10EC17F0E552E552E7CF5E
:103AA00014F0145C02E1050E0DD00D0E146E040E20
:103AB000DB50145C6CE00A0E156E040EDB50155CD6
:103AC00066E0030EE66E6DEC19F0E55260D0040E70
:103AD000DBCFE6FF2FEC17F0E552010838E191C18A
:103AE00014F092C115F093C116F094C117F0040EB2
:103AF000D8901436153616361736E806F9E114C094
:103B0000E6FF15C0E6FF16C0E6FF17C0E6FF040E8D
:103B1000DBCFE6FF58EC17F0E552E552E7CF17F0A0
:103B2000E552E7CF16F0E552E7CF15F0E552E7CFC3
:103B300014F0145006240101916F15500720926F64
:103B400016500820936F17500920946F20D0570EFD
:103B5000146EE66E040EDBCFE6FF10EC17F0E552B4
:103B6000E552E7CF14F0145C0AE191C1E6FF92C17F
:103B7000E6FFE4EC11F0E552E552010E01D0030E30
:103B8000E66E6DEC19F0E5520101D46BD56B030EB6
:103B9000DB2A65D652EC02F0070E0101D215146E35
:103BA000156A060E141801E115501FE0040E1418D2
:103BB00001E1155015E0020E141801E115500DE059
:103BC000145019E1155017E1D2C1E6FFD3C1E6FF49
:103BD000ECEC14F0E552E5520ED055EC15F00BD09C
:103BE00036EC14F09BEC15F006D094EC17F0F3CF04
:103BF00096F1F4CF97F10101D22B000ED323D89088
:103C0000D35104E6100ED25D010ED35902E3D26BFC
:103C1000D36B050EE15C02E2E16AE552E16EE5522A
:103C2000E7CFD9FF120012001200120012008DEF30
:103C300000F01200DBEF00F00101640520E101015A
:103C400065051DE1A094F0DF64920101656B000140
:103C5000100EE06F0E0EE16FE007000EE15BE05129
:103C6000E111FAE16484080EE06F070EE16FE007EE
:103C7000000EE15BE051E111FAE16494A0841200CE
:103C8000D9CFE6FFE1CFD9FFFD0EDBCF08F0FE0E66
:103C9000DBCF09F0050E081801E1095036E0E868AD
:103CA000081802E17F0E09182FE0030E081801E141
:103CB000095028E0020E081801E1095021E0010E28
:103CC000081801E109501AE0740E081801E10950C2
:103CD00013E0750E081801E109500CE0730E081886
:103CE00001E1095005E0720E08180FE109500DD0EE
:103CF0009CDF0BD098DF09D097DF07D09BDF05D082
:103D000098DF03D094DF01D091DF010EE552E7CFB9
:103D1000D9FF12001201000202000008D8040A00B4
:103D200000010102000109024300020100C0320942
:103D30000400000102020100052400100104240215
:103D4000020524060001052401000107058103087E
:103D5000000209040100020A0000000705020240F7
:103D60000000070582024000000403090434034DEB
:103D7000006900630072006F0063006800690070F2
:103D800000200054006500630068006E006F006C46
:103D9000006F0067007900200049006E0063002E6C
:103DA0000034034300440043002000520053002D20
:103DB00000320033003200200045006D0075006CB9
:103DC000006100740069006F006E0020004400650F
:103DD000006D006F00263D693D6D3DA13DFF000E69
:103DE000F66E010EF76E000EF86E01010900F55037
:103DF000CD6F0900F550CE6F03E1CD6701D03DD006
:103E00000900F550C86F0900F550C96F0900F55059
:103E1000CA6F09000900F550E96E0900F550EA6E15
:103E2000090009000900F550CB6F0900F550CC6F6F
:103E300009000900F6CFCFF1F7CFD0F1F8CFD1F1DB
:103E4000C8C1F6FFC9C1F7FFCAC1F8FF0101CB53D2
:103E500002E1CC5307E00900F550EE6ECB07F8E223
:103E6000CC07F9D7CFC1F6FFD0C1F7FFD1C1F8FF1A
:103E70000101CD07000ECE5BBFD7120006500B022A
:103E8000F3CF02F0F4CF03F00C02F3500326000E40
:103E9000F420046E06500D02F3500426000EF420A8
:103EA000056E06500E02F350052607500B02F35024
:103EB0000326F4500422000E052207500C02F35092
:103EC0000426F450052207500D02F3500526085031
:103ED0000B02F3500426F450052208500C02F35054
:103EE000052609500B02F35005261200056A046AE4
:103EF000036A026A200EE76ED89006360736083647
:103F0000093602360336043605360B50025C0C5077
:103F100003580D5004580E50055809E30B50025E2B
:103F20000C50035A0D50045A0E50055A062AE72E1B
:103F3000E4D71200FE0EE3CFE9FFFF0EE3CFEAFF66
:103F4000E9CFF3FFEACFF4FFFB0EE35003E1FC0EF1
:103F5000E35009E0FB0EE30602E2FC0EE306FD0E71
:103F6000E350EE6EF1D71200056A046A100EE76E98
:103F7000D89008360936043605360D50045C0E50CC
:103F8000055805E30D50045E0E50055A082AE72E29
:103F9000F0D71200000EF36E00EE00F0030E01D811
:103FA0001200EA6002D0EE6AFCD7F350E96012001A
:103FB000EE6AFCD711EE00F021EE00F0F86A019CE9
:103FC000EFEC1EF003EC08F04BEC19F0FBD71200FD
:103FD000056A080EE76ED890093605360E50055C66
:103FE00002E3056E092AE72EF7D71200FFFFFFFF55
:103FF000FFFFFFFFFFFFFFFFFFFFFFFFFFFFFFFFD1
:020000040030CA
:0E0000000032211E0000810003C003E0034017
:020000040020DA
:08000000FFFFFFFFFFFFFFFF00
:0200000400F00A
:10000000FFFFFFFFFFFFFFFFFFFFFFFFFFFFFFFF00
:10001000FFFFFFFFFFFFFFFFFFFFFFFFFFFFFFFFF0
:10002000FFFFFFFFFFFFFFFFFFFFFFFFFFFFFFFFE0
:10003000FFFFFFFFFFFFFFFFFFFFFFFFFFFFFFFFD0
:10004000FFFFFFFFFFFFFFFFFFFFFFFFFFFFFFFFC0
:10005000FFFFFFFFFFFFFFFFFFFFFFFFFFFFFFFFB0
:10006000FFFFFFFFFFFFFFFFFFFFFFFFFFFFFFFFA0
:10007000FFFFFFFFFFFFFFFFFFFFFFFFFFFFFFFF90
:10008000FFFFFFFFFFFFFFFFFFFFFFFFFFFFFFFF80
:10009000FFFFFFFFFFFFFFFFFFFFFFFFFFFFFFFF70
:1000A000FFFFFFFFFFFFFFFFFFFFFFFFFFFFFFFF60
:1000B000FFFFFFFFFFFFFFFFFFFFFFFFFFFFFFFF50
:1000C000FFFFFFFFFFFFFFFFFFFFFFFFFFFFFFFF40
:1000D000FFFFFFFFFFFFFFFFFFFFFFFFFFFFFFFF30
:1000E000FFFFFFFFFFFFFFFFFFFFFFFFFFFFFFFF20
:1000F000FFFFFFFFFFFFFFFFFFFFFFFFFFFFFFFF10
:00000001FF
